:040000000C946B00F1
:100004000C9400000C9400000C9400000C9400006C
:100014000C9400000C9400000C9400000C9400005C
:100024000C9400000C9400000C9400000C9400004C
:100034000C9400000C9400000C9400000C9400003C
:100044000C9400000C9400000C9400000C9400002C
:100054000C9400000C9400000C9400000C9400001C
:100064000C9400001027E80364000A00010000104B
:1000740000011000010050415449454E54004D4FB9
:100084004E49544F52494E470054454D503A00543E
:10009400454D5020414C45525400454D455247452D
:1000A4004E435920414C4552540080C0080000037F
:1000B4007A000B0008038200060013038D000B0076
:1000C40019039300100024039E0002003403AE00C1
:1000D4000000F894EE27EFBBF1E0F5BFE5BF8DE03B
:1000E400A2E0BB27ED938A95E9F780E098E0A0E0D1
:1000F400B1E0ED930197E9F7E0EBF0E0859195919C
:10010400009761F0A591B59105901590BF01F0019C
:1001140005900D920197E1F7FB01F0CFE0E0EEBB13
:10012400EFEFEDBFE8E0EEBFC0E0D3E00C94F200E7
:10013400AA93E881E06CE0937C008BE18A95F1F767
:10014400E0917A00E064E0937A00E0917A00E07153
:10015400E1F3E0917A00E061E0937A00E0917800C5
:10016400F091790075C1BA93AA9321970E948C02E9
:10017400AF81B885EAE0F0E00E9455028F01AF81BB
:10018400B885EAE0F0E00E946D023E2FD801EAE073
:10019400F0E00E946D022E2FD801EAE0F0E00E9408
:1001A40055025E2FA52FBB27EAE0F0E00E94700203
:1001B4004E2FA52FB0E0EAE0F0E00E946802EE8343
:1001C400AE81A05DF2D0A42FA05DEFD0A22FA05DE0
:1001D400ECD0A32FA05DE9D00E9493022996089544
:1001E400E0E8E0936100E0E0E0936100E4B9E5B9A0
:1001F400E7B9E8B9E4E0EAB9E2E1EBB9E0E0E4BD8B
:10020400E5BDE6BDE7BDE8BDE0938000E093810075
:10021400E0938500E0938400E0938700E0938600F8
:10022400E0938900E0938800E0938B00E0938A00D8
:10023400E093B600E093B000E093B100E093B20025
:10024400E093B300E093B400E0936E00E0936F009A
:10025400E0937000E0936900EDBBE0936800E093E5
:10026400C000E8E1E093C100E6E0E093C200E0E012
:10027400E093C500E3E3E093C400E0E8E0BFE0E01E
:10028400E0937F00E0937E00E0ECE0937C00E3E801
:10029400E0937A00E0E0E0937B00ECBDE093BC00E7
:1002A4005A98A0E1A8D00E942C02A0E0B3E092D01A
:1002B400E0E0EA93A1E060D0A8E0B3E00E9431025C
:1002C400A5E036DFDF01E9E1F0E00E9455023E2EB1
:1002D4004F2EE0E0EA93A1E04FD0A3E1B3E07AD05F
:1002E400A32DB42D40DF5A98E6E2F0E0E315F405BF
:1002F4003CF45A9A0E942C02A9E1B3E00E94310214
:100304004C9907C05A9A0E942C02A4E2B3E00E94BE
:100314003102D6CFFFCFAA93E881E07111F05D9A44
:1003240001C05D98E881E07211F05E9A01C05E98A8
:10033400E881E07411F05F9A01C05F98E881E07889
:1003440011F0289A01C028988DE08A95F1F7429A15
:100354008DE08A95F1F742988DE08A95F1F778C09F
:10036400AA93A881D8DFE881E295E883A881D3DF46
:1003740085E88A95F1F76CC0AA93E881F0E0EC5C1B
:10038400FC4FE081A981AE0FEBDFA9809880229613
:100394000895A2E00E943902ACE0E2DFA1E00E94ED
:1003A4003902E0E09E2EAE2E0895AA93A881AA30C9
:1003B40011F0AC1448F0E0E0EA939394A92DDCDF4B
:1003C400A881AA3009F444C0A394409AA881C8DF44
:1003D40040983EC0BA93AA931A93A981BA81ED9129
:1003E400A983BA831E2FE03019F0A12FDEDFF5CFE9
:1003F400188123960895AA93559A569A579A209A43
:100404003A9A389A399A429840984198C880E88133
:10041400E058E0933603E881E054E0933703A4E125
:10042400B0E00E9447020E943F020E943F020E94E5
:100434003F02A0E270DF88EC90E00197F1F7A8E2B8
:100444008FDFA4E08DDFA5E88BDFA6E089DFA1DFE5
:1004540021960895E0E0EA93A0E00C94BE010E9486
:10046400EC01A0EDB7E00E9447020C94CB010E947E
:10047400B201A3E0B0E00C944702A0E30E948D0116
:1004840088EC90E00197F1F70895109639F080ED2B
:1004940097E00197F1F7A8951197C9F70895F19599
:1004A400E195F04008950024112490E1AA0FBB1FA8
:1004B400001C111C0E1A1F0A18F40E0E1F1E01C078
:1004C400A1609A9599F7FD01D001089515D0EBDF4D
:1004D4000EF4E5DF0895E7DFFD010895E894B7FF22
:1004E40004C0A095B09511966894F7FDD8DFDBDFC2
:1004F400FD010EF4D4DF0895E894F7FF02C0CFDFC6
:100504006894B7FF06C0A095B095119600F80394BF
:1005140000FA08955A934A933A932A931A930A93A2
:1005240008955D814C813B812A8119810881089558
:00000001FF
